:100000000C94C3020C94480E0C940A030C940A033B
:100010000C940A030C940A030C940A030C940A032C
:100020000C940A030C940A030C94B5250C948726AF
:100030000C94381C0C940A030C940A030C940A03C5
:100040000C940A030C940A030C940A030C940A03FC
:100050000C940A030C94A01C0C940A030C940A033D
:100060000C940A030C940A030C940A030C940A03DC
:100070000C940A030C940A030C940A030C940A03CC
:100080000C940A030C940A030C940A030C940A03BC
:100090000C940A030C940A030C940A030C940A03AC
:1000A0000C940A030C940A030C940A032A122A12D1
:1000B0005C125C12A912C912291429140B13A8137B
:1000C000B913B9131914291429142214AB14AB143D
:1000D000BD14BD14B414BD14BD14BD14AB14AB14C5
:1000E000B914BD14BD14B914F4261B270D281B2701
:1000F0000D2867278A270D28E027EF2735001E00E7
:100100001F0020002100220005012B0014001A000E
:100110000800150017002F0AE00004001600070071
:1001200009000A00BC00E1001D001B0006001900C8
:100130000500AA003100E2004E004B00E3002A0057
:1001400001512D0027002600250024002300050171
:100150002E00130012000C0018001C00300A34009E
:1001600033000F000E000D000B00AB00E50038005F
:100170003700360010001100A900E40003515200BE
:100180005100E7002C00280035003A003B003C00FD
:100190003D003E00A8002B00000000000000000011
:1001A00000004C00290000000000000000000000DA
:1001B0000000E1000000000000000000000000005E
:1001C000E000E20000000000E3002A00000044001C
:1001D00043004200410040003F00AE0045003100B6
:1001E0000000000030022F020000000031024F002A
:1001F0005200510050000000E50000000000000027
:1002000030002F000000E400E60000000000E700DE
:100210002C00280001000100010001000100010084
:10022000010000000000F0000000F90000000100E3
:100230000000F200F100F300FA00000001000000ED
:1002400000000000000000000000010000000000AD
:1002500000000000F400F5000100010001000100B1
:10026000010001000100010000000000000000008A
:10027000000000000100000000004F00520051008B
:10028000500000000000000000000000000000001E
:10029000010000000000000000000000010001005B
:1002A00000003A003B003C003D003E00C55C000001
:1002B000005CCD5CC25CC35CC65C0000000000005A
:1002C000000000000000000001000000000000002D
:1002D000000000000000000000000000000000001E
:1002E0000000000000000000430042004100400008
:1002F0003F00C85C000000000000C95CCA5CC75C2D
:1003000000000000000000000000000000000100EC
:1003100000000000000000000000000000000000DD
:1003200001000000000000000000000000010101C9
:1003300001010101010102020202020202020203A2
:100340000303030303030304040404040404050572
:100350000505050606060606070707070708080835
:1003600008090909090A0A0A0B0B0B0C0C0C0D0DE4
:100370000D0E0E0E0F0F0F1010111111121213137C
:100380001414151516161717181819191A1A1B1BF5
:100390001C1D1D1E1E1F2020212222232424252651
:1003A00026272829292A2B2C2D2D2E2F3031323289
:1003B000333435363738393A3B3C3D3E3F40414295
:1003C000434445464748494A4C4D4E4F505153547B
:1003D000555658595A5B5D5E5F616264656668692F
:1003E0006B6C6D6F7072737577787A7B7D7E8082AF
:1003F000838587888A8C8E8F91939596989A9C9EF8
:10040000A0A2A3A5A7A9ABADAFB1B3B5B7BABCBE07
:10041000C0C2C4C6C9CBCDCFD1D4D6D8DBDDDFE2D4
:10042000E4E7E9EBEEF0F3F5F8FAFDFF0403300042
:10043000000026035400680065002000520065009B
:1004400064006F00780020004B00650079006200B6
:100450006F00610072006400000014034600610038
:100460006C006200610074006500630068000000B9
:100470000403090409023B00020100A0FA09040078
:1004800000010301010009211101000122400007C0
:1004900005810308000A09040100010300000009A6
:1004A00021110100012285000705820320000A12A4
:1004B00001100100000008EDFE0000000101020330
:1004C0000105010902A10185020901A1000509191F
:1004D0000129051500250195057501810295017514
:1004E0000381010501093009311581257F950275C8
:1004F00008810609381581257F9501750881060553
:100500000C0A38021581257F950175088106C0C047
:1005100005010980A10185031A81002A83001601C3
:1005200000260300950175108100C0050C0901A18A
:100530000185041A01002A9C02160100269C0295DE
:100540000175108100C005010906A101050719E028
:1005500029E71500250195087501810295017508A7
:1005600081010507190029FF150026FF0095067572
:100570000881000508190129059505750191029565
:100580000175039101C011241FBECFEFDAE0DEBF79
:10059000CDBF04B603FE27C080914D0290914E025C
:1005A000A0914F02B09150028730904BA740B04BC2
:1005B000D1F410924D0210924E0210924F021092FE
:1005C000500214BE84B7877F84BF0FB6F894A895F5
:1005D00080916000886180936000109260000FBE7F
:1005E000E0E0F8E3099511E0A0E0B1E0E2E7F1E531
:1005F00002C005900D92AC33B107D9F722E0ACE30D
:10060000B1E001C01D92AD34B207E1F70E94D922DA
:100610000C94B7280C9400000C948A0881E008958B
:1006200081E008950C9410031F93CF93DF9300D0C3
:1006300000D01F92CDB7DEB749835A832091730152
:1006400089819A81211112C0662349F00E94D01934
:10065000182F682F89819A810E94751903C00E9402
:10066000A419182F69817A81812F04C00E94D019A2
:1006700069817A810F900F900F900F900F90DF910A
:10068000CF911F910C94E405FC014081518162815E
:10069000738184810C9414030E94001B811102C099
:1006A0000E94A01B0C940C030C948C0808950C94CD
:1006B000560381E008950C945903CF93C82F0E94EC
:1006C00057038C2F0E945B03CF91089508950E94D9
:1006D0009B140E9466032FEF84E39CE0215080402E
:1006E0009040E1F700C0000087E797E7909301088A
:1006F000809300080C94C61C0F931F93CF93DF9335
:100700008C010E944403EC01B8010E94120388236B
:1007100009F450C2B801CE010E94510D882309F49A
:1007200049C2C83CFCE5DF0739F4F8018281811138
:1007300041C20E94140C3EC2C93C8CE5D80708F0A7
:10074000C6C1C23CECE5DE0739F4F80182818111B3
:1007500031C20E94740C2EC2C33CFCE5DF0708F0D6
:1007600071C1C6318CE5D80708F042C1C230ECE552
:10077000DE0708F419C1F8018281882309F41BC13E
:100780000E94001B811102C00E94A01B0E94131B2B
:1007900090933F0280933E02C031FCE5DF0709F4ED
:1007A000C3C008F041C0C830ECE5DE0709F49AC0C8
:1007B000F0F4C4308CE5D80709F487C068F4C2307F
:1007C000FCE5DF0709F477C0C330DC4509F0E3C07E
:1007D00080913E02826076C0C630ECE5DE0709F407
:1007E0006EC008F07BC080913E0288606BC0CC3048
:1007F0008CE5D80709F485C068F4CA30FCE5DF074A
:1008000009F474C008F079C00E949B1480913E02E4
:10081000806858C0CE30ECE5DE0709F476C008F0F9
:100820007FC080913E028BC0CB3F8CE5D80709F496
:100830004FC018F5C331FCE5DF0709F47DC078F43B
:10084000C131ECE5DE0709F473C0C231DC4509F0C3
:10085000A2C00E949B1480913E028F7733C0C531A5
:100860008CE5D80709F472C008F486C0CA3FDC459D
:1008700009F091C080913F023EC0CF3F8CE5D80780
:1008800009F45FC058F4CD3FFCE5DF0709F444C02C
:1008900008F43FC080913F0282602DC0C130EDE579
:1008A000DE0709F475C008F45DC0C230DD4509F00B
:1008B00072C080E06EC080913E02816003C0809172
:1008C0003E02806180933E0266C080913E0211C06C
:1008D00080913F02826080933F025DC080913E0222
:1008E0008062F0CF80913E028064ECCF80913E0226
:1008F00088608460E7CF8160EECF80913E028E7F7A
:10090000E1CF80913E028D7FDDCF80913E02877FD7
:10091000D9CF80913F0218C080913F028D7FDBCFFD
:1009200080913E028F7ECECF80913E028F7DCACFD6
:1009300080913E028F7BC6CF80913E02877F8B7F66
:10094000C1CF80913F028D7F8E7FC5CF80913E02C7
:1009500082FB222720F991E0922790FB82F990FBFD
:1009600083F9B0CF80913F02982F909591708E7F40
:10097000892B90FB81F9AFCF0E949B1480913E029E
:1009800087FB222720F991E0922790FB87F99ACFE5
:1009900081E00E94A21B80913E0290913F020E9442
:1009A000241B0E949B1406C1C115FCE5DF0751F012
:1009B000C130DC4579F0C801DF91CF911F910F91D3
:1009C0000C940E03F8018281882309F4F3C00E947D
:1009D0006703F0C0F8018281882309F4EBC080919D
:1009E000EE01982F909590FB80F98093EE01E2C084
:1009F000C631DC4501F70E94501A282FF801828188
:100A000040910B0150910C01882379F02A7A91E0F2
:100A100009F490E090933C01911102C069E201C099
:100A200065E3CA010E94D91B0AC080913C01811173
:100A300002C069E201C065E3CA010E94DB1B0E949B
:100A40009C1AB8C0C53CFCE5DF0739F4F801828187
:100A50008111B0C00E94E90BADC0C63C8CE5D8073F
:100A600000F5C33CECE5DE0761F4F80182818823E0
:100A700009F4A0C00E94501A827281F00E94660C94
:100A800099C0C43CDC4509F096CFF80182818823E7
:100A900009F490C00E94501A827281F30E94590C8E
:100AA00089C0C63C8CE5D80739F4F80182818111F0
:100AB00081C00E94F60B7EC0C73CDC4509F07BCFAD
:100AC000F8018281811176C00E94050C73C0C63D79
:100AD000FCE5DF0708F042C0CE3C8CE5D80708F003
:100AE00069C0CB3CECE5DE0741F4F8018281882344
:100AF00009F460C00E94230B5DC0CC3CFCE5DF071D
:100B0000B0F4C93C8CE5D80739F4F8018281811131
:100B100051C00E94230C4EC0CA3CDC4509F04BCFAB
:100B2000F8018281811146C00E94320C43C0CC3C46
:100B3000FCE5DF0739F4F80182818823D9F10E94AE
:100B4000340B38C0CD3CDC4509F035CFF80182814B
:100B5000882381F181E00E94690C2CC0CE3DECE538
:100B6000DE0739F4F8018281882321F10E94A01B5D
:100B700021C0CF3DFCE5DF07B0F4CC3D8CE5D807C4
:100B800031F4F80182818823A9F080E009C0CD3DCD
:100B9000DC4509F010CFF8018281882359F082E00A
:100BA0000E94782307C0CE018A5F9C45099708F40C
:100BB000E2CD01CF80E0DF91CF911F910F91089599
:100BC00080E090E00895089597E0799FF001112466
:100BD00096E4899FE00DF11D1124E60FF11DEE0F43
:100BE000FF1FE450FF4F859194910895880F991F3E
:100BF000FC01E45DFC4F859194910895CF93DF93C0
:100C00000E94E4050E94B307EC01811520E59207DC
:100C1000F0F5811530E4930708F024C1883E910572
:100C200000F5803E910508F09AC1883A910570F46C
:100C3000853A910508F09FC08130910509F48FC174
:100C400008F440C1049708F08AC13CC18F3B91056C
:100C500008F49CC0803C910508F434C1805C910983
:100C6000F4C0811540E2940758F4C11581E0D8071B
:100C700008F075C1C03FD10508F424C1D0656FC12B
:100C8000811520E3920708F0E4C09F70DEC0811553
:100C900035E5930708F044C0811544E5940708F052
:100CA000F8C0C11582E5D80708F5C11521E5D207BE
:100CB00008F0DBC08C2F837021E030E002C0220FEF
:100CC000331F8A95E2F73C68CE0174E096958795CC
:100CD0007A95E1F78370382BCF70C695C69580E280
:100CE000C89FE0011124C22BD32B39C12C2F26958C
:100CF0002695CE0183709927C115D34508F0BAC057
:100D000040E2249F90011124C1E0D0E002C0CC0F4A
:100D1000DD1F8A95E2F72C2B3D2BE901DC681FC112
:100D2000811549E59407A0F4C11588E5D80708F0B6
:100D3000B5C0C11526E5D20708F0C4C08C2F0E94AB
:100D400047088F71C82FD0E0DC2FCC27D06207C1B5
:100D500081153AE5930708F4A6C090568115904294
:100D600008F0B0C08D2F8F710E944708DD27D06238
:100D70008F71D82BF4C0853A910509F4A6C0863A44
:100D8000910509F0A5C0C2E8D0E4E9C0883A910510
:100D900009F4A1C0893A910509F4A0C08A3A9105E5
:100DA00009F49FC08B3A910509F49EC08C3A9105D5
:100DB00009F49DC08B3B910509F49CC08C3B9105C7
:100DC00009F49BC08D3A910509F49AC0803B9105C6
:100DD00009F499C08E3A910509F498C08F3A9105AB
:100DE00009F497C0813B910509F496C0823B9105B7
:100DF00009F495C0833B910509F494C0843B9105A7
:100E000009F493C0853B910509F492C0863B910596
:100E100009F491C0873B910509F490C0883B910586
:100E200009F48FC0893B910509F48EC08D3B910573
:100E300009F48DC08E3B910509F48CC08A3B910565
:100E400009F48BC0C0E0D4E48AC00E94F605EC012E
:100E500086C09927D3FF03C0EC01D86C80C0EC0199
:100E6000D06C7DC0DF70D06A7AC0DC2FCC27C16F18
:100E7000D06A75C040E2249F90011124C1E0D0E007
:100E800002C0CC0FDD1F8A95E2F7C22BD32BDA68A4
:100E900066C0D82FCC27C46FD06A61C0DC2FCC27A6
:100EA000C06FD06A5CC08F700E94470894E0D695EE
:100EB000C7959A95E1F7CF70D0E0DC2FCC27D069A9
:100EC000C82B4DC0C0E0D0E04AC0C1E8D0E447C064
:100ED000C3E8D0E444C0C2EED4E441C0C9EED4E4D7
:100EE0003EC0CAEED4E43BC0C5EBD4E438C0C6EB88
:100EF000D4E435C0C3EBD4E432C0C4EBD4E42FC097
:100F0000C7EBD4E42CC0CCECD4E429C0CDECD4E4C1
:100F100026C0C3E8D5E423C0CAE8D5E420C0C2E9AE
:100F2000D5E41DC0C4E9D5E41AC0C1E2D6E417C0B7
:100F3000C3E2D6E414C0C4E2D6E411C0C5E2D6E4EC
:100F40000EC0C6E2D6E40BC0C7E2D6E408C0CFE6C6
:100F5000D4E405C0C0E7D4E402C0CAE2D6E4CE01BE
:100F6000DF91CF9108958238910569F1B0F4813312
:100F7000910509F46DC048F48932910509F463C004
:100F80008A32910509F469C008958533910509F401
:100F900055C089339105B9F00895833E910569F1F3
:100FA00038F4803E9105B1F0823E910509F1089533
:100FB000863E9105A9F1873E9105B9F1843E9105E0
:100FC00009F064C023C020913E0220FD4FC021FDE6
:100FD0004DC0089580913E0280FD44C080913F0243
:100FE00080FF44C080913E0284FD42C083EE4DC02C
:100FF00080913E0282FF38C0F5CF80913E0282FD93
:1010000033C080913F0280FD31C0ECCF80913F0220
:1010100081FF32C080913E0284FD2AC087EE35C038
:1010200080913E0283FF26C0F5CF80913E0283FD72
:1010300021C080913F0281FD1FC0ECCF80913E0214
:1010400085FD1CC01DC080913E0285FD19C016C0E3
:1010500080913E0286FD16C017C080913E0286FD3B
:1010600013C010C089E311C082EE0FC080EE0DC026
:1010700080E00BC086EE09C084EE07C089E205C09F
:1010800085E303C08AE201C081E390E00895909176
:101090003E0292FF0DC0282F2871283019F4877F57
:1010A000846006C0282F2471243011F48B7F88605F
:1010B00093FF0DC0282F2871283119F4877E846191
:1010C00006C0282F2471243111F48B7E8861209171
:1010D0003F0220FF0DC0382F3871383019F4877F58
:1010E000816006C0382F3171313011F48E7F8860F5
:1010F00021FF0DC0282F2871283119F4877E8161C6
:1011000006C0282F2171213111F48E7E886194FD53
:10111000877E0895089508950C948B080895E82F0C
:10112000F0E0ED5BFE4F8081089508950E94060A6D
:101130008091000180910001811102C095E001C001
:1011400090E09093080285E0891B80930702A5E256
:10115000B1E041E050E025E02A0F8D91E82FE295C3
:10116000EF70F0E031A18F70BA0102C0660F771FF7
:101170008A95E2F7CB01962F9095932391A392A1A4
:10118000892B82A32A13E9CFAEE1B1E041E050E020
:1011900027E02A0F8D91E82FE295EF70F0E031A162
:1011A0008F70BA0102C0660F771F8A95E2F7CB01F4
:1011B000962F9095932391A392A1892B82A32A1312
:1011C000E9CFE3E4F1E08AE08E0F11928E13FDCFB8
:1011D00085E00E94B0090C944C037F928F929F92FD
:1011E000AF92BF92CF92DF92EF92FF920F931F9335
:1011F000CF93DF9365E271E0AEE3B1E0812C01E0D3
:1012000010E095E09A0F7D017C901C92EB01899192
:10121000BE01E82FE295EF70F0E021A18F70A801E8
:1012200001C0440F8A95EAF7822F842B81A322A163
:10123000842F8095282322A3D0EADA95F1F7CEE116
:10124000AC2EC1E0BC2E20E030E0E50199905E01BB
:10125000C92CC2945FE0C522D12CE601C8A0D12CD4
:10126000D92DDF7002C0D594C794DA95E2F7C0FC9F
:1012700007C06801022E01C0CC0C0A94EAF702C034
:10128000C12CD12CDC90CD28CC922F5F3F4F273042
:101290003105D9F621A1822381A382A1482B42A343
:1012A000119681E0F7012081721201C080E0882A46
:1012B0009A13A9CF6091080270E06D5B7E4F282DD4
:1012C00045E08EE391E00E94B109882DDF91CF9136
:1012D0001F910F91FF90EF90DF90CF90BF90AF9054
:1012E0009F908F907F900895CF930E94ED08C82F14
:1012F0000E94E709882339F120910702822F90E0AC
:101300008D5B9E4F0E941D0A811118C090913D0176
:101310009F5F90933D01963098F04091070220E046
:1013200030E050E0F901E40FF51FED5BFE4F108255
:101330002F5F3F4F25303105A9F702C010923D01C4
:101340000E9454030AC020910802822F90E08D5B16
:101350009E4F0E94380A0E948E088C2FCF910895CC
:101360000895FF920F931F93CF93DF938C01F62E76
:10137000D72FC42F222349F081E080934F010E9490
:101380006A1C90934E0180934D0180914F018823F8
:10139000C1F080914D0190914E010E94761C0697FC
:1013A00080F0EF2DFD2FD8014C2F50E0CD01801B98
:1013B000910B841795071CF48D918193F7CF1092B0
:1013C0004F01DF91CF911F910F91FF900895809170
:1013D0005001811112C08091D80080618093D800A3
:1013E0008AE18A95F1F700C08091D90080FD02C0A2
:1013F00082E001C081E08093500181E09091500132
:10140000913009F080E008950C94E7090E94040AE5
:10141000809300010E94E70981110C94110A0C9439
:10142000170A61E070E081E091E00C94ED0D61E05D
:1014300070E081E091E00C94F60DCF93DF93D82F0C
:10144000C92F0E94990E892B79F4ED2FFC2F80E093
:1014500090E0DC01AE5ABE4F2C912193019685306D
:101460009105B9F781E001C080E0DF91CF91089547
:1014700020E030E0FC014191CF01F901EE5AFE4F2E
:1014800040832F5F3F4F25303105A1F70895AF927C
:10149000BF92CF92DF92FF920F931F93CF93DF9370
:1014A000D62E372FE82FF0E0711106C0E45DFC4F17
:1014B0006491762F862F75C0C72FD0E0E45DFC4F76
:1014C0002491F22E022F10E046E0649FC001112407
:1014D000EFEFF0E0BF010E944128AB016BEA64032B
:1014E000C001659F900D11248D0D911D8D0D911DD5
:1014F000982F990F890FDF01AC1BBD0B0A9FB0011C
:101500000B9F700D1A9F700D1124972F839FD00190
:101510001124AB2FBB276F01CA1ADB0A0C9DD00127
:101520000D9DB00D1C9DB00D11245F01A81AB108CE
:10153000AC9E6001AD9ED00CBC9ED00C1124CD2D74
:10154000DD27EC1BFD0B0E9FE0010F9FD00D1E9FB2
:10155000D00D1124ED2F4230510591F04CF441157E
:101560005105E1F041305105B9F4E22F2B2F16C09F
:101570004430510569F044F04630510579F00CC013
:10158000E22F272F9D2F0AC0272F9F2DEB2F06C05C
:10159000E72F922F2D2F02C0E72F9B2F6E2F722F38
:1015A000892FDF91CF911F910F91FF90DF90CF9006
:1015B000BF90AF900895CF93DF93762FE901682F06
:1015C000842F0E94470A798368838A83DF91CF91B1
:1015D000089580910902982F9695913021F081709D
:1015E000826080930902089588E090E00C94772847
:1015F000CF93DF9300D000D0CDB7DEB7AB01BC01F5
:1016000049835A836B837C830E94E90A49815A810A
:101610006B817C8188E090E00F900F900F900F908D
:10162000DF91CF910C949528E9E0F2E083E080838C
:1016300011828FEF82838383148260817181828122
:1016400093810C94F80A80910D02833018F48F5F17
:1016500080930D026091090270910A0280910B0241
:1016600090910C020C94F80A80910D02882319F0D5
:10167000815080930D026091090270910A0280915D
:101680000B0290910C020C94F80A60910A0170E030
:101690008091090280FF0AC08091580123E0829F57
:1016A000C0011124825F9D4F0C94E10C8091570181
:1016B00090910901891780F7E82FF0E09F01220F30
:1016C000331FE20FF31FE25FFD4F1182108212827F
:1016D0008F5FF0CFE9E0F2E080818E7F80836081D0
:1016E0007181828193810E94F80A2FEF80E792E056
:1016F000215080409040E1F700C000000C94450B61
:101700009091090290FF16C0909157012091090114
:10171000921770F4E92FF0E0DF01AA0FBB1FEA0F68
:10172000FB1FE25FFD4F8183608342839F5FF0CFA9
:101730000C94450B0895EF92FF920F931F93CF9354
:10174000DF9300D01F92CDB7DEB79091090290FFD2
:101750002CC0E22E142F062FF82EE92FE695F0E08C
:10176000E15DFE4F808180935A019E7F923059F453
:101770009E012F5F3F4F8F2D0E94DB0A4B816981B5
:101780008A810E94800BF0920A0200930B02109350
:101790000C02EE2051F06091090270910A028091D2
:1017A0000B0290910C020E94F80A0F900F900F907C
:1017B000DF91CF911F910F91FF90EF900895E9E095
:1017C000F2E09181282F4381628188E0890F0C9497
:1017D0009B0B81E00C94DF0BE9E0F2E09181282F74
:1017E0004381628188EF890F0C949B0B81E00C94FC
:1017F000EC0BE9E0F2E0628121E1620F08F46FEFA7
:10180000282F438181810C949B0B81E00C94F90B70
:10181000E9E0F2E0628121E1621B08F460E0282F38
:10182000438181810C949B0B81E00C94080CE9E0CE
:10183000F2E0438121E1420F08F44FEF282F62814B
:1018400081810C949B0B81E00C94170CE9E0F2E091
:10185000438121E1421B08F440E0282F628181810D
:101860000C949B0B81E00C94260C20E00C949B0BB9
:101870008091090280FF18C0817082608093090204
:10188000662351F06091090270910A0280910B0267
:1018900090910C020E94F80A40910C0260910B0298
:1018A00080910A020C94350C0895682F81E00C9405
:1018B000380C81E00C94550C682F90910902969594
:1018C0008FEF890F09F481E00C94380C81E00C94BF
:1018D0005C0C61E00C94380CE9E0F2E080818160FE
:1018E000808386950C94690C8091090280FD0C948C
:1018F0006A0B0C946C0C60E00C94380C80915901CC
:1019000081112CC00E94001B811104C00E94A01BE9
:101910000E94140B0E94F40A6093090270930A0259
:1019200080930B0290930C026E7F61F40E94140B63
:101930000E94F40A6093090270930A0280930B02DA
:1019400090930C020E94E90A8091090280FF03C073
:1019500086950E947B0C81E08093590108952BB1FC
:10196000342F309523233BB1432B3FB7F894FC0130
:10197000680F791FE617F70789F0819198E04BB956
:10198000000000C087FF2BB9880F000000C000C016
:1019900000C02BB900C09A9591F7ECCF3FBF0895D6
:1019A0002AB1242B2AB99B01220F331F620F731F08
:1019B0000E94AF0C87EC90E00197F1F700C00000A7
:1019C000089548E00C94D00C0F931F93CF93DF93AE
:1019D000C62FD42F022FFC0182818823C9F0609387
:1019E0005E010E946A1C90935D0180935C0180E21D
:1019F0008C0F883008F050C0C77081E001C0880F9C
:101A0000CA95EAF7DF91CF911F910F910C94EA11DB
:101A100010915E01161330C080915C0190915D01C0
:101A20000E94761C883C910538F5C0E2CD0F1D1749
:101A3000B9F080E2810F883040F4177081E001C076
:101A4000880F1A95EAF70E94F111C83048F481E036
:101A50009D2F977001C0880F9A95EAF70E94EA11AE
:101A6000802F0E94D711C830B8F4D77081E001C030
:101A7000880FDA95EAF70AC080E28C0F883060F4AC
:101A8000C77081E001C0880FCA95EAF7DF91CF9156
:101A90001F910F910C94F111DF91CF911F910F9134
:101AA00008959C01CB01233F4CE53407F9F078F40D
:101AB000283DFCE53F07B9F0293D4CE5340711F11D
:101AC000273D3C4531F526E241EE61EE1EC0253F43
:101AD000FCE53F0799F070F0263F3C45D1F427E242
:101AE00045EE66EE12C027E245EE0EC026E241EE5C
:101AF00060EE0BC027E245EE64EE07C026E241EE41
:101B000062EE03C028E241E065EE0E94E40C80E052
:101B10000895FC018281882319F010925E010895D6
:101B200081E008958EE1489B02C08150E1F7489B17
:101B3000FECF0895589880E28A95F1F7589A089553
:101B4000FC013AE03A95F1F798E020E080E031E0DE
:101B500040E14A95F1F7880F489B02C08160232736
:101B600000C0000040E14A95F1F7915089F790E1FB
:101B70009A95F1F799B100C0000030E13A95F1F77C
:101B8000917092272081920F90830895FF920F9376
:101B90001F93CF93DF9300D0CDB7DEB71982F82E15
:101BA0008C01802F8F19861760F46A830E94920D32
:101BB000CE0101960E94A00DF80181938F016A81E8
:101BC000F0CF81E09981911180E00F900F90DF912B
:101BD000CF911F910F91FF90089590936101809391
:101BE000600160935F01509A589A08959093610143
:101BF0008093600160935F015098589AE89AE9E6F3
:101C0000F0E080818C7F80830895615091E001C075
:101C1000990F6A95EAF720E031E0992361F0492FA6
:101C2000482319F0589A232701C0589840E24A9552
:101C3000F1F79695F2CF222311F0589A01C05898E7
:101C400080E28A95F1F758980895EF92FF920F93EA
:101C50001F93CF93DF931F92CDB7DEB7162F082FB8
:101C60007C018E2D801B811758F4F70181917F0133
:101C700089830E949A0D68E089810E94050EF1CF48
:101C80000F90DF91CF911F910F91FF90EF900895EA
:101C90001F920F920FB60F9211242F933F934F93E1
:101CA0005F936F937F938F939F93AF93BF93CF93E4
:101CB000DF93EF93FF935898509AC0916001D091B1
:101CC00061016D81662321F08E819F810E94250E26
:101CD0000E949A0D80E18A95F1F758985098589A89
:101CE00080E18A95F1F76A81662351F08B819C81AE
:101CF0000E94C60DE881F981811104C082E003C011
:101D0000E881F98188E080830E94920DFF91EF9134
:101D1000DF91CF91BF91AF919F918F917F916F9103
:101D20005F914F913F912F910F900FBE0F901F9099
:101D30001895CF93DF93C0916001D0916101F89421
:101D4000509A589885E08A95F1F700005098589A73
:101D500080E28A95F1F7489B0AC0509A589AE88128
:101D6000F98181E08083789481E090E02CC06D81DE
:101D7000662381F08E819F810E94C60D81110AC069
:101D8000509A589AE881F98182E08083789482E0C1
:101D900090E019C00E94920D80E28A95F1F7589860
:101DA000509A80E18A95F1F76A81662321F08B8150
:101DB0009C810E94250E0E949A0DE881F981108273
:101DC000789480E090E0DF91CF910895909367013F
:101DD000809366010895E0916601F0916701309764
:101DE00021F00190F081E02D099480E00895E091C8
:101DF0006601F0916701309721F00280F381E02DB8
:101E000009940895E0916601F0916701309739F0E7
:101E100022E0DC012C930480F581E02D09940895E3
:101E200020916401309165018217930771F09093BE
:101E3000650180936401E0916601F091670130973C
:101E400021F00680F781E02D099408952091620128
:101E5000309163018217930771F09093630180932F
:101E60006201E0916601F0916701309721F00084F2
:101E7000F185E02D0994089585B7806885BF85B701
:101E8000806885BF0895089508950C94440F0895BF
:101E90000C94470F0E943C0F0E94430F0C94450F77
:101EA0000E94611C0E9496080E94D71C0E947E0C12
:101EB0000C94480FCF92DF92EF92FF920F931F93F3
:101EC000CF93DF93CDB7DEB72B970FB6F894DEBF75
:101ED0000FBECDBF0E9474090E94E709811111C095
:101EE0008FEF89838A831B820E946A1C8160782F0E
:101EF0009D838C8349815A816B818D810E94021060
:101F000056C089E6C82E81E0D82E00E010E0E02E11
:101F1000802F0E948F08F60141916F01F42EF82660
:101F200031F40F5F1F4F0A30110589F7D9CF909117
:101F3000EE0191FF04C08B870E9495088B8520E0FD
:101F400030E04F2D50E0922FBA01022E02C075955D
:101F500067950A94E2F760FF24C02E83EF8221E0A8
:101F600030E0690102C0CC0CDD1C9A95E2F790E0EC
:101F70008C219D21892B09F420E028870E946A1C6E
:101F80008160782F9A8789874E815F8168858A85ED
:101F90000E940210F801E759FE4F8081C826C082D6
:101FA00006C02F5F3F4F2730310569F6BACF0E9438
:101FB000691E109168010E94EB0E1817A1F00E9493
:101FC000EB0E809368012B960FB6F894DEBF0FBE20
:101FD000CDBFDF91CF911F910F91FF90EF90DF90D8
:101FE000CF900C945D032B960FB6F894DEBF0FBE16
:101FF000CDBFDF91CF911F910F91FF90EF90DF90B8
:10200000CF900895CF93DF93CDB7DEB72B970FB660
:10201000F894DEBF0FBECDBF4F83588769877A879C
:102020008B87DE01119686E0FD0111928A95E9F712
:1020300085E0FE01379601900D928A95E1F749817E
:102040005A816B817C818D819E810E9445172B96E0
:102050000FB6F894DEBF0FBECDBFDF91CF910895CC
:10206000FC01808191810E94111A0895CF93DF9322
:102070001F92CDB7DEB7882309F42DC1682F8238AF
:10208000C1F40E94EB0E81FD26C169E380910B0132
:1020900090910C010E94D91B0E949C1A2FEF81EE97
:1020A00094E0215080409040E1F700C0000069E3D7
:1020B00019C0833811F50E94EB0E80FD0CC163E559
:1020C00080910B0190910C010E94D91B0E949C1AD7
:1020D0002FEF81EE94E0215080409040E1F700C066
:1020E000000063E580910B0190910C010E94DB1BC5
:1020F0000F90DF91CF910C949C1A8438C1F40E9408
:10210000EB0E82FDE8C067E480910B0190910C0119
:102110000E94D91B0E949C1A2FEF81EE94E021505F
:1021200080409040E1F700C0000067E4DBCF8CEF17
:10213000860F813A70F4862F69830E949A20698104
:102140008111C9C080910B0190910C010E94D91B93
:10215000CFCF80E2860F883048F4677081E001C0FD
:10216000880F6A95EAF70E94531AC2CF8BE5860F53
:10217000833088F4653A29F0663A31F083E890E0DC
:1021800005C081E890E002C082E890E00F90DF9106
:10219000CF910C94100F88E5860F873108F091C01D
:1021A000683A09F445C0693A09F445C06A3A09F445
:1021B00045C06B3A09F445C06C3A09F445C06B3B25
:1021C00009F445C06C3B09F445C06D3A09F445C0BB
:1021D000603B09F445C06E3A09F445C06F3A09F412
:1021E00045C0613B09F445C0623B09F445C0633B0F
:1021F00009F445C0643B09F445C0653B09F445C09A
:10220000663B09F445C0673B09F445C0683B09F4E7
:1022100045C0693B09F445C06D3B09F445C06E3BC0
:1022200009F445C06A3B09F445C080E090E044C031
:1022300082EE90E041C089EE90E03EC08AEE90E0F0
:102240003BC085EB90E038C086EB90E035C083EB77
:1022500090E032C084EB90E02FC087EB90E02CC080
:102260008CEC90E029C08DEC90E026C083E891E0F2
:1022700023C08AE891E020C082E991E01DC084E992
:1022800091E01AC081E292E017C083E292E014C0AC
:1022900084E292E011C085E292E00EC086E292E014
:1022A0000BC087E292E008C08FE690E005C080E7AF
:1022B00090E002C08AE292E00F90DF91CF910C94FF
:1022C000260F603F40F0862F0E94711D0F90DF9116
:1022D000CF910C945E1E0F90DF91CF9108958823CB
:1022E00009F464C0823879F40E94EB0E81FF5EC06D
:1022F00069E380910B0190910C010E94D91B0E940F
:102300009C1A69E310C08338B1F40E94EB0E80FF81
:102310004DC063E580910B0190910C010E94D91B87
:102320000E949C1A63E580910B0190910C010E9420
:10233000DB1B0C949C1A843879F40E94EB0E82FF0C
:1023400035C067E480910B0190910C010E94D91B6C
:102350000E949C1A67E4E7CF9CEF980F913A10F423
:10236000682FE1CF90E2980F983050F4877091E099
:1023700001C0990F8A95EAF7892F0E94591AD9CF7F
:102380009BE5980F933020F480E090E00C94100FC0
:1023900098E5980F973120F480E090E00C94260F98
:1023A000803F20F00E94D91D0C945E1E0895CF93AB
:1023B000C82F0E943610C93349F42FEF87EE93E0FF
:1023C000215080409040E1F700C000008C2FCF9159
:1023D0000C946F11882321F00E94531A0C949C1ABC
:1023E0000895882321F00E94591A0C949C1A08958C
:1023F000BF92CF92DF92EF92FF920F931F93CF93F2
:10240000DF937C01062FC72FFC01158112951F70E9
:10241000D281D1110E94701A0E94491A882379F042
:10242000DD2369F080E2800F883048F082E00E946E
:10243000E71A0E94491A91E0B82EB92601C0B12CC2
:10244000CC2EC2948FE0C822D12CF601EA5AFF4F5D
:102450000C9469288C2F807FCF70882311F0C2954F
:10246000C07FDD2399F0CC2309F4CEC180E2800F38
:10247000883010F0011104C08C2F0E94531A03C041
:102480008C2F0E94631A0E949C1ABEC1802F0E944A
:102490006F11CC2309F4DDC180E2800F883010F089
:1024A000011104C08C2F0E94591A03C08C2F0E9466
:1024B000691A0E949C1ACDC18C2F807FCF70803208
:1024C00011F0C295C07F002319F00130C9F022C07D
:1024D000DD2371F0112341F0113031F40E94831A91
:1024E0008C2B0E94891AB5C10E94831A8C2B1DC0A7
:1024F000112319F0113009F4ACC10E94921A25C0C1
:10250000DD2321F0163008F0A4C10EC0153008F00C
:10251000A0C11BC0DD2361F0112331F0F7018581DB
:1025200080FF72C18F7085838C2F0E94EA1191C148
:10253000112359F0093309F078C1FFEF27EE83E04A
:10254000F15020408040E1F76EC18C2F0E94F111C4
:1025500080C18C2F86958695837090E0009719F046
:10256000019761F076C1DD2321F0802F9C2F9370BD
:1025700002C080E090E00E94100F76C1DD2321F0C0
:10258000802F9C2F937002C080E090E00E94260F65
:102590006BC1DD23F9F0053F51F0063F71F0043FB8
:1025A000A9F4809138029091390281600BC080912A
:1025B000380290913902826005C080913802909172
:1025C000390284609093390280933802802F0E94F0
:1025D000711D1EC0053F51F0063F71F0043FA9F484
:1025E00080913802909139028E7F0BC08091380221
:1025F000909139028D7F05C0809138029091390207
:102600008B7F9093390280933802802F0E94D91DCE
:102610000E945E1E29C18C2F837009F049C0D11120
:102620001FC1402F429546954770440F440F602FBD
:102630006F70862F90E0A0E0B0E0042E04C0880FF9
:10264000991FAA1FBB1F0A94D2F704FF10C00FE006
:1026500010E020E030E004C0000F111F221F331FE4
:102660004A95D2F7009510952095309503C000E06B
:1026700010E09801C695C695C370D0E0BC01CD01AD
:10268000602B712B822B932BC230D10559F0C330B4
:10269000D10559F0219719F00E948A18E1C00E94D3
:1026A0007818DEC00E949C18DBC00E947618D8C043
:1026B000DD2319F08C2F817001C08695882309F4E1
:1026C000CFC0402F429546954770440F440F602F6E
:1026D0006F70862F90E0A0E0B0E0042E04C0880F59
:1026E000991FAA1FBB1F0A94D2F704FF10C00FE066
:1026F00010E020E030E004C0000F111F221F331F44
:102700004A95D2F7009510952095309503C000E0CA
:1027100010E09801C695C695C370D0E0BC01CD010C
:10272000602B712B822B932BC230D10559F0C33013
:10273000D10559F0219719F00E94501991C00E94BB
:102740003E198EC00E9462198BC00E94B11888C0C9
:10275000CF70DD2339F08C2F0E94D718802F0E9474
:10276000EA117EC0802F0E94F1118C2F0E94F81870
:1027700077C0023F01F128F4003F41F0013FA1F092
:102780003FC0033FF9F0043F39F13AC0DD2341F087
:10279000153008F05EC08C2F8F710E941D1959C032
:1027A000163008F056C0F7CFDD2339F08C2F8F712B
:1027B0000E94D7184EC0DD23C9F38C2F8F710E9461
:1027C000F81847C0DD2329F08C2F8F710E94C218A2
:1027D00040C00E94BD183DC0DD2349F0CF718C2F51
:1027E0000E94D71863E08C2F0E94D21A32C081E079
:1027F0000E94E71A123068F182E00E94E71A29C0AD
:10280000DD2331F0112391F2802F0E94361021C078
:10281000112399F2093349F49FEFE7EEF3E0915069
:10282000E040F040E1F700C00000802F0E946F11EF
:1028300010C04C2F4F70602FC7010E94E0050E940E
:10284000E91712C04C2F4F70602FC7010E94E3059B
:102850000BC028E0C21AD10884E0C816D10420F4C5
:102860000E94EB0E0E945D03BB20D1F00E94451A2E
:1028700080FD16C0F70112820E943F1A0E94D718ED
:10288000C7010E945A140E943F1ADF91CF911F91F5
:102890000F91FF90EF90DF90CF90BF900C94F818BD
:1028A000DF91CF911F910F91FF90EF90DF90CF902C
:1028B000BF9008950F931F93CF93DF93EC0188810E
:1028C00099812B813C81232BB9F09F3F11F48F3FDD
:1028D00099F0CE010E947C03882371F06881798190
:1028E0008A810E941C1A8C010E9474190E9475181A
:1028F000B801CE010E94F811DF91CF911F910F9185
:1029000008950E94701A0E94801A0E949C1A0E94C8
:10291000041F0E945E1E80E090E00E94100F80E085
:1029200090E00C94260F80910B0190910C010E9475
:10293000DD1B0C9481140E94601A0C949314E92FEF
:10294000E295EF70F0E03297EE30F105B0F4EA591D
:10295000FF4F0C946928803F91F018F4883E68F48A
:102960000EC0843F51F40BC0883E48F0813F29F4EB
:1029700006C093FB882780F9089580E0089581E0E0
:1029800008950E94111A0E949F140895CF93DF9317
:1029900000D000D01F92CDB7DEB70F900F900F90F0
:1029A0000F900F90DF91CF910895CF93DF9300D0D8
:1029B00000D000D0CDB7DEB726960FB6F894DEBFB4
:1029C0000FBECDBFDF91CF9108951F93CF93DF93BB
:1029D000C091740116E080917501C81799F0D0E09C
:1029E0001C9FF0011D9FF00D1124EA58FE4F4081FD
:1029F000518162817381848195810E94D5142196D1
:102A0000C770E9CFDF91CF911F9108954091A60142
:102A10005091A7016091A8017091A9018091AA012C
:102A20009091AB010C94D5148091AB0182958F707D
:102A300009F054C08091A801882309F44FC0809107
:102A40007401A09175016091A6017091A701409158
:102A5000A9015091AA01B6E08A1709F43FC090E09D
:102A600041155105C1F17F3F11F46F3FA1F1B89FAE
:102A7000F001B99FF00D1124EA58FE4F2181721325
:102A80002AC02081621327C02281211124C0238102
:102A900034812417350710F421503109241B350BDC
:102AA000283C3105C0F42091AB012F7020612093A8
:102AB000AB0126E0289FF001299FF00D1124E55875
:102AC000FE4F80818F708061808386EA91E00E9452
:102AD0005A140C94E51401968770BECF0895CF92D6
:102AE000DF92EF92FF920F931F93CF93DF93CDB7B7
:102AF000DEB762970FB6F894DEBF0FBECDBF8C0174
:102B000085E0F801DE011D9601900D928A95E1F7AE
:102B1000D8014C9111965C91119712966C91129775
:102B20001396CD90DC9014973091A6017091A70177
:102B30008091A9019091AA01009709F46BC17F3F90
:102B400019F43F3F09F466C1E090A801EE2009F4B2
:102B5000C0C02091AB01C816D90628F0F601E81BC9
:102B6000F90BCF0104C0809590958C0D9D1DFF241D
:102B7000F394883C910578F0F12C207F09F0C6C0D1
:102B80007C2DD98AC88A89890E94C61486EA91E078
:102B90000E945A14B1C0822F807F09F046C075137D
:102BA00014C0341312C0611110C02F702061209323
:102BB000AB010E94061586EA91E00E945A148091AA
:102BC000AB01D80115968C932EC0CD2819F15F3F2B
:102BD00011F44F3FF9F0F62E61111CC08091740181
:102BE0002091750136E0821709F45AC090E0389FB1
:102BF000F001399FF00D1124EA58FE4F71815713EF
:102C000006C07081471303C07281711103C0019621
:102C10008770E9CFF62E662309F427C18091AB01B6
:102C200081608093AB01F12C20C1751308C034136F
:102C300006C0611104C08091AB01D801C3C04D87AB
:102C40005E878D859E856A8B0E94C1146A89882360
:102C5000E1F16623D1F12091AB01822F82958F7033
:102C600090E0029774F08091A6019091A701988757
:102C70008F831986DB86CA862C87CE0107960E9431
:102C80005A1486E0F801A6EAB1E001900D928A9507
:102C9000E1F70E9414150E940615FF24F394E5C085
:102CA0004D875E878D859E850E94111A292F22955A
:102CB0002F7030E0223031050CF0CBC09F7009F04E
:102CC000C5C0805E883008F4D0C0C8010E945A1484
:102CD000E4CFC816D90608F453C0F601E81BF90B77
:102CE000CF01883C910508F450C0F12C7C2DD98A85
:102CF000C88A89890E94C614E6EAF1E086E0DF010D
:102D00001D928A95E9F70E940615AFC0751314C08D
:102D1000341312C0611110C08091AB01F80185839A
:102D2000C8010E945A1486E0E6EAF1E0DF011D9234
:102D30008A95E9F7FE2C99C04D875E878D859E8523
:102D40006A8B0E94C1146A89882309F4BECF662366
:102D500009F4BBCF2091AB01822F82958F7090E058
:102D600002970CF48ECF8091A6019091A7019A83CF
:102D700089831B82DD82CC822E83CE0101967FCF98
:102D8000809590958C0D9D1DACCFF62E662309F491
:102D90009CCF75132EC034132CC02091AB0120FDA5
:102DA0001FC0822F82958F70D9F0D80115962C9371
:102DB00015978F3049F08F5F982F9295907F822FD3
:102DC0008F70892B15968C93C8010E945A1486E047
:102DD000F801A6EAB1E001900D928A95E1F793CF50
:102DE00086E0F801A6EAB1E001900D928A95E1F73C
:102DF0003CC04D875E878D859E850E94C1148111E0
:102E000040CF8091AB0181608093AB01C8010E94EB
:102E10005A142BC0662309F458CF4D875E878D85E1
:102E20009E850E94C114F82E882309F44ECF86E0B7
:102E3000F801A6EAB1E001900D928A95E1F786EAE1
:102E400091E00E9430100E9414155DCF811139CF9E
:102E50000CC0243031050CF038CF9F7009F431CF0D
:102E6000F8019581907F09F02CCF8F2D62960FB6D7
:102E7000F894DEBF0FBECDBFDF91CF911F910F91B0
:102E8000FF90EF90DF90CF9008951F93CF93DF9343
:102E9000CDB7DEB72C970FB6F894DEBF0FBECDBF0F
:102EA0004F83588769877A878B879C87CE010796DF
:102EB0000E946F15882369F08F8198852A853B854C
:102EC000232BF1F19F3F09F063C08F3F09F060C0F1
:102ED00037C086E0FE013796DE01119601900D9213
:102EE0008A95E1F76F817885EA85FB85309741F116
:102EF0007F3F11F46F3F21F12091750130E0C9014E
:102F00000196877099274091740150E084179507C6
:102F100009F447C069837A83FD83EC8396E0929F2E
:102F2000D001939FB00D1124AA58BE4FFE013196D7
:102F300001900D929A95E1F7809375010E94E51436
:102F400016E080917401909175018917C1F1189F65
:102F5000C00111248A589E4F0E946F15882379F171
:102F6000E09174011E9FF0011124EA58FE4F408148
:102F7000518162817381848195810E94D5148091F1
:102F8000740190E001968770992780937401D9CFDE
:102F90004F81588569857A858B859C850E94D514DB
:102FA000CFCF0E949B141092750110927401E6EA33
:102FB000F1E086E0DF011D928A95E9F7C1CF2C96FA
:102FC0000FB6F894DEBF0FBECDBFDF91CF911F913A
:102FD0000895EF92FF920F931F93CF93DF938C018D
:102FE000892B09F46CC0F12CEE24E394E8012196BE
:102FF000F8018491843740F4843008F051C0813066
:1030000081F0823019F15BC0853709F444C0A8F122
:103010009CE7980F903708F052C08F770E946F118D
:1030200041C00E5F1F4FFE01C49180E28C0F8830BB
:1030300048F4C7708E2D01C0880FCA95EAF70E9428
:10304000731A14C08C2F0E9436102DC00E5F1F4FB4
:10305000FE01C49180E28C0F883058F4C7708E2D29
:1030600001C0880FCA95EAF70E94791A0E949C1A3B
:103070001AC08C2F0E946F1116C00E5F1F4FFE01E9
:10308000C491CC2381F08FE99FE00197F1F700C054
:103090000000C150F6CF0E5F1F4FFE01F49003C039
:1030A0000E9436108E018F2D882309F49FCFEFE9FF
:1030B000FFE03197F1F700C000008150F5CFDF91BC
:1030C000CF911F910F91FF90EF90089508950C9468
:1030D00066180E9467186093DD017093DE0180938B
:1030E000DF019093E0010C94811408950C94691809
:1030F0000F931F930091DD011091DE012091DF01FC
:103100003091E001602B712B822B932B1F910F913B
:103110000C9469180F931F930091DD011091DE014B
:103120002091DF013091E0016023712382239323FA
:103130001F910F910C9469180F931F930091DD015B
:103140001091DE012091DF013091E00160277127AD
:10315000822793271F910F910C94691808950C945E
:10316000AE180E94AF186093D9017093DA01809372
:10317000DB019093DC010C94811460E070E0CB01E2
:103180000C94B1180F931F9341E050E060E070E0A1
:103190008A019B0104C0000F111F221F331F8A9553
:1031A000D2F7C901B8011F910F910C94B1180F9378
:1031B0001F9341E050E060E070E004C0440F551FF1
:1031C000661F771F8A95D2F78091D9019091DA0115
:1031D000A091DB01B091DC018A019B01082B192B26
:1031E0002A2B3B2BC901B8011F910F910C94B118E8
:1031F0000F931F9341E050E060E070E004C0440F83
:10320000551F661F771F8A95D2F740955095609598
:1032100070958091D9019091DA01A091DB01B09174
:10322000DC018A019B01082319232A233B23C901BE
:10323000B8011F910F910C94B1180F931F9341E0A7
:1032400050E060E070E004C0440F551F661F771F18
:103250008A95D2F78091D9019091DA01A091DB0192
:10326000B091DC018A019B01082719272A273B27F7
:10327000C901B8011F910F910C94B1180F931F93BE
:103280000091D9011091DA012091DB013091DC012C
:10329000602B712B822B932B1F910F910C94B118E3
:1032A0000F931F930091D9011091DA012091DB0156
:1032B0003091DC0160237123822393231F910F91AE
:1032C0000C94B1180F931F930091D9011091DA015A
:1032D0002091DB013091DC01602771278227932741
:1032E0001F910F910C94B118089527E0929F800DC3
:1032F0001124A82FA695A695A695877051E001C028
:10330000550F8A95EAF785E0A89FD001112420E0A7
:1033100030E070E0F901EA0FFB1FE455FE4F4081F9
:10332000CB01022E02C0969587950A94E2F7817030
:103330009927819584278523842780832F5F3F4F9A
:103340002530310539F7089527E0929F800D11242B
:10335000682F669566956695982F977085E0689FAB
:10336000B001112440E050E080E0FA01E60FF71FC1
:10337000E455FE4F208130E0092E02C03695279596
:103380000A94E2F721703327042E01C0220F0A9419
:10339000EAF7822B4F5F5F4F4530510531F70895B3
:1033A000BF92CF92DF92EF92FF920F931F93CF9332
:1033B000DF938C01C090DD01D090DE01E090DF0151
:1033C000F090E0018091D9019091DA01A091DB01A8
:1033D000B091DC01C82AD92AEA2AFB2ACFE1D0E041
:1033E000D701C6010C2E04C0B695A7959795879571
:1033F0000A94D2F780FF07C0BC2EB8018C2F0E9420
:10340000FE05019719F4219758F7B12C8B2DDF9108
:10341000CF911F910F91FF90EF90DF90CF90BF90D1
:103420000895CF93DF93EC010E94D019BE010E9452
:10343000FE05DF91CF9108951F93CF93DF93EB01AA
:1034400090917301992321F0CB010E94111A13C0AE
:10345000882349F0CB010E94D019182F682FCE0184
:103460000E94751904C0CB010E94A419182FBE0137
:10347000812F0E94FE05DF91CF911F9108958091C9
:10348000E10185958595859508958091E101877085
:1034900008959091E101977081E009F480E008952A
:1034A0008091ED0108959091ED01892B8093ED01BC
:1034B000089580959091ED0189238093ED01089501
:1034C0001092ED0108959091EC01892B8093EC010D
:1034D000089580959091EC0189238093EC010895E3
:1034E0001092EC0108959091EB01892B8093EB01F0
:1034F000089580959091EB0189238093EB010895C5
:103500001092EB0108958091E201089508950C94C2
:10351000861A9091E201981721F08093E2010C94B1
:10352000871A08958091E201882329F01092E20120
:1035300080E00C94871A0895E0910B01F0910C0142
:103540008091ED018083E0910B01F0910C0190815D
:103550008091EC01892B8083E0910B01F0910C01AB
:1035600090818091EB01892B80838091E2018823F7
:1035700081F0E0910B01F0910C019081892B808307
:1035800080910B0190910C010E94A71B81110E9458
:10359000921A80910B0190910C010C94F70E0895F2
:1035A0000C94CF1A98E0899F90011124262B209328
:1035B000E1010E94D7188091E10185958595859557
:1035C0000C94D01A1092E10180E00C94D01A209152
:1035D000E101809582238093E101982F977079F41F
:1035E00030E0482F082E000C550B2417350739F012
:1035F0008595859585950E94F8180C94E21A089592
:1036000080E090E00E947D2821E08C3E9E4F09F0F2
:1036100020E0822F089582E090E00C946F2883E0F0
:1036200090E00C946F28CF9384E090E00E946F2884
:10363000C82F81E290E00E946F282C2F30E0A90172
:10364000582BCA01CF910895CF93C92F682F84E0DA
:1036500090E00E9483286C2F81E290E0CF910C943F
:103660008328AB01BC018FE090E00C949528AB015E
:10367000BC0183E190E00C94952860E070E0CB0100
:103680000C94371B60E070E0CB010E94311B0C945E
:103690003D1B6CEE7EEF80E090E00E94A12860E090
:1036A00082E090E00E94832860E083E090E00E9446
:1036B00083281092DD011092DE011092DF0110923A
:1036C000E00160E084E090E00E94832860E081E215
:1036D00090E00E94832860E085E090E00E948328CB
:1036E00060E086E090E00E9483286FEF87E090E042
:1036F0000E94832840E050E0BA0188E090E00E94F8
:10370000952860E08DE090E00E94832840E050E042
:10371000BA0188E190E00E94952860E087E190E09E
:103720000E94832840E050E0BA018CE190E00E94C2
:10373000952860E080E290E00E9483280C94421B70
:103740000C94491B682F8EE090E00C948328FC01B8
:10375000329697E080E0915029F021912223D9F30D
:103760008F5FF9CF08959C01FC0132969FEF80E0B6
:103770004191461789F09F3F19F4411101C0982FDC
:103780008F5F8630A9F79F3F39F0F901E90FF11DEE
:1037900097FDFA95628308950895FC013296089684
:1037A0002081261301C010823196E817F907C1F76E
:1037B00008950C94B31B0C94CD1B029626E0FC01DB
:1037C00011922A95E9F7089508950C94E41B0E943C
:1037D000E51B80914402843049F11092EF0120E40E
:1037E00088E190E00FB6F894A895809360000FBE32
:1037F0002093600080E00E945D030E94E51B83B778
:10380000817F846083BF83B7816083BF789488950C
:1038100083B78E7F83BF0FB6F894A8958091600020
:10382000886180936000109260000FBE0895089533
:103830000895CF930E94171C0E9474090E94181CBF
:10384000C0E08C2F0E948F08811104C0CF5FCA3066
:10385000C1F701C081E0CF91089508950C942D1C0B
:103860000E949B140E94EB0E0E945D030C942E1C80
:103870001F920F920FB60F9211248F939F93AF93C5
:10388000BF938091EF01811113C080913A02909112
:103890003B02A0913C02B0913D024196A11DB11D99
:1038A00080933A0290933B02A0933C02B0933D0276
:1038B000BF91AF919F918F910F900FBE0F901F906E
:1038C000189582E084BD93E095BD9AEF97BD8093F3
:1038D0006E0008952FB7F89480913A0290913B02C0
:1038E000A0913C02B0913D022FBF0895CF92DF928C
:1038F000EF92FF920F931F932FB7F89440913A02E3
:1039000050913B0260913C0270913D022FBF6A01D1
:103910007B01EE24FF248C0120E030E0C016D106AC
:10392000E206F30610F4415051099A01281B390BA5
:10393000C9011F910F91FF90EF90DF90CF900895F4
:1039400078941F920F920FB60F9211248F939F932A
:10395000AF93BF9380913A0290913B02A0913C02B9
:10396000B0913D020196A11DB11D80933A02909342
:103970003B02A0933C02B0933D02BF91AF919F9157
:103980008F910F900FBE0F901F90189587E797E7C4
:1039900090930108809300089AE088E10FB6F894AC
:1039A000A895809360000FBE90936000FFCF0E94A7
:1039B000001B811102C00E94A01B0E940B1B809360
:1039C000EE010E94131B90933F0280933E020E94DF
:1039D0000F1B682F70E080E090E00C9476188091C7
:1039E000F30180FF0BC06091100185E0689FB0017A
:1039F000112475956795759567952BC081FF09C052
:103A00006091100185E0689FB0011124759567955C
:103A100020C082FF07C06091100185E0689FB0015F
:103A2000112417C09091F2019923D1F060910F01F8
:103A3000961788F72091100185E0289F90011124A6
:103A4000929FA001939F500D112470E0CA010E9423
:103A500055286038710540F46115710539F002C0D0
:103A600065E070E0862F08958FE7089581E008955E
:103A70008091F30180FF08C060910E0170E07595A0
:103A800067957595679521C081FF06C060910E010D
:103A900070E07595679519C082FF04C060910E01B2
:103AA00070E010C09091F2019923C1F060910D0176
:103AB0009617A0F780910E01899FC001112470E034
:103AC0000E9455286038710528F46115710521F0B0
:103AD000862F08958FE7089581E0089561E070E0F2
:103AE000F4CF803F21F40E94EF1C819504C0813FF8
:103AF00029F40E94EF1C8093F7010895823F21F47E
:103B00000E94EF1C819504C0833F29F40E94EF1CA2
:103B10008093F6010895893F19F40E94381D05C06D
:103B20008A3F31F40E94381D81958093F8010895F1
:103B30008B3F21F40E94381D819504C08C3F29F4ED
:103B40000E94381D8093F9010895843F21F48091EB
:103B5000F501816017C0853F21F48091F5018260F5
:103B600011C0863F21F48091F50184600BC0873F2E
:103B700021F48091F501886005C0883F31F480917F
:103B8000F50180618093F50108958D3F21F48091C6
:103B9000F30181600BC08E3F21F48091F3018260BC
:103BA00005C08F3F29F48091F30184608093F30175
:103BB0000895803F39F48091F70187FF6CC010921F
:103BC000F70169C0813F29F48091F7011816BCF311
:103BD00062C09091F601823F29F497FF5CC0109279
:103BE000F60159C0833F19F41916CCF354C0893F2C
:103BF00041F48091F80118160CF04DC01092F801B4
:103C00004AC08A3F29F48091F80187FF44C0F6CF6B
:103C10008B3F39F48091F90187FF3DC01092F90183
:103C20003AC08C3F29F48091F9011816BCF333C0D7
:103C3000843F21F48091F5018E7F17C0853F21F4E8
:103C40008091F5018D7F11C0863F21F48091F501AF
:103C50008B7F0BC0873F21F48091F501877F05C0E2
:103C6000883F31F48091F5018F7E8093F50113C078
:103C70008D3F21F48091F3018E7F0BC08E3F21F4A4
:103C80008091F3018D7F05C08F3F29F48091F3016E
:103C90008B7F8093F3018091F60181110EC080919A
:103CA000F70181110AC08091F801811106C080914D
:103CB000F901811102C01092F201089584EF91E0A0
:103CC0000E94020F0E946A1C9093F1018093F00100
:103CD00008951F93CF93DF938091F0019091F101AC
:103CE0000E94761CAC019091F201992321F0209161
:103CF000110130E006C0209112018AE0289F900156
:103D000011244217530708F47BC08091F601C0913B
:103D1000F701D091F8011091F901811107C0C1118B
:103D20006BC0D11169C0111167C06AC09F3F19F003
:103D30009F5F9093F201181624F40E94EF1C809369
:103D4000F6018091F60187FF05C00E94EF1C819566
:103D50008093F6011C1624F40E94EF1C8093F70157
:103D60008091F70187FF05C00E94EF1C8195809329
:103D7000F7013091F6013323E1F02091F70122237E
:103D8000C1F045EB3403C0011124892F990F990B21
:103D9000009709F481E08093F60135EB2303C0011D
:103DA0001124892F990F990B009709F481E08093D2
:103DB000F7011D1624F40E94381D8093F8018091AC
:103DC000F80187FF05C00E94381D81958093F80196
:103DD000111624F40E94381D8093F9018091F90195
:103DE00087FF05C00E94381D81958093F901DF91FE
:103DF000CF911F910C945E1E9F3F09F099CFA1CFE8
:103E0000DF91CF911F910895E4EFF1E086E0DF01AB
:103E10001D928A95E9F71092F2011092F30108952C
:103E2000833081F128F4813059F08230D1F0089547
:103E3000853009F449C0B8F1863009F456C00895B8
:103E400080911201262F30E0280F311D2F3F3105C0
:103E500024F4680F6093120108958FEF809312018C
:103E6000089580911101262F30E0280F311D2F3F3A
:103E7000310524F4680F6093110108958FEF80934A
:103E80001101089580911001262F30E0280F311D77
:103E90002F3F310524F4680F6093100108958FEFD0
:103EA00080931001089580910F01262F30E0280F94
:103EB000311D2F3F310524F4680F60930F010895E1
:103EC0008FEF80930F01089580910E01262F30E02F
:103ED000280F311D2F3F310524F4680F60930E0128
:103EE00008958FEF80930E01089580910D01262F84
:103EF00030E0280F311D2F3F310524F4680F609307
:103F00000D0108958FEF80930D010895833011F115
:103F100028F4813049F0823091F00895853081F1A4
:103F200020F18630C1F1089580911201681720F4C4
:103F3000861B8093120108951092120108958091BA
:103F40001101681720F4861B8093110108951092C7
:103F50001101089580911001681720F4861B809349
:103F60001001089510921001089580910F016817B3
:103F700020F4861B80930F01089510920F0108957D
:103F800080910E01681720F4861B80930E0108951E
:103F900010920E01089580910D01681720F4861B80
:103FA00080930D01089510920D0108950F931F93B2
:103FB0008B3109F474C058F58B3009F4A1C078F442
:103FC000863009F446C020F4853009F44CC09FC007
:103FD000873009F456C0883009F492C098C0803107
:103FE00009F470C068F48E3009F091C08091EE0140
:103FF00082FB222720F991E0922790FB82F958C09A
:10400000863109F47DC0893109F47AC080C08A32D2
:10401000E9F060F4873209F475C028F48E3108F4B1
:1040200076C08D515AC08932F1F071C0833450F49A
:104030008A3308F051C0853309F464C0883309F429
:104040005FC065C0833409F45DC061C00E94A01BDD
:1040500057C08091EE01817F8E7F8093EE0181E0D9
:104060008093FB0155C00E949B140FEF13ED20E3DA
:10407000015010402040E1F700C000000E94C61C23
:104080003FC08091EE01982F9095917090FB80F940
:104090008093EE01911134C0897F877F10C0809199
:1040A000EE0181FB222720F991E0922790FB81F914
:1040B0008093EE01992321F18091EE01816080933C
:1040C000EE011EC08091EE0183FB222720F991E0D2
:1040D000922790FB83F9ECCF895341E050E060E0F8
:1040E00070E08A019B0104C0000F111F221F331FC3
:1040F0008A95D2F7C901B8010E9476180E949B14D4
:1041000081E006C061E070E080E090E0F5CF80E003
:104110001F910F91089580E0089580E008958E51D9
:104120008A3030F4E82FF0E0EF5CFE4F8081089594
:1041300080E00895CF93C82F8091FB01813051F02A
:1041400018F0823099F17DC00E94501A823209F035
:104150007AC004C00E94501A823261F48C2F0E94EF
:104160008B20811104C08C2F0E94D61F1DC081E0BE
:1041700090E01AC08C2F0E948D20811114C0C43190
:1041800079F048F4CB3079F0C03109F060C082E0BA
:104190008093FB0108C0C93219F0C83321F057C021
:1041A0001092FB0154C081E0817053C0C93289F183
:1041B00018F5C43171F1B0F4C73009F046C08EE192
:1041C0008093120182E3809311018AE080931001B1
:1041D00084E180930F0188E080930E0188E2809350
:1041E0000D0133C082EE8C0F863078F58C2F0E9443
:1041F0008F208093FA0129C0CE34E9F020F4CB342B
:1042000021F56AE013C0C13579F0C235F1F461E0FF
:104210000DC08091FA01882319F01092FA0115C09F
:1042200081E08093FB0115C061E006C08091FA0136
:104230000E94101F0AC06AE08091FA010E94861F46
:1042400004C01092FB0180E004C081E002C080E065
:10425000ABCFCF9108958091040208950F931F93DF
:10426000CF93DF9300D01F92CDB7DEB78C010E94B1
:104270008823823011F0843021F584E089831B8308
:104280000A8382E08093E9008FEF9091E8008150EB
:1042900095FD06C095ED9A95F1F700008111F5CFD7
:1042A0008091E80085FF0DC040E050E063E070E0E1
:1042B000CE0101960E94A5238091E8008E7780931D
:1042C000E8000F900F900F90DF91CF911F910F9109
:1042D0000895CF93DF9300D01F92CDB7DEB7209122
:1042E0004402243031F523E02983805891099B83CF
:1042F0008A8382E08093E9008FEF9091E8008150FB
:1043000095FD06C095ED9A95F1F700008111F5CF66
:104310008091E80085FF0DC040E050E063E070E070
:10432000CE0101960E94A5238091E8008E778093AC
:10433000E8000F900F900F90DF91CF910895CF93E9
:10434000DF93EC010E948823823011F08430F9F46D
:1043500082E08093E9009FEF8091E800915085FD15
:1043600006C085ED8A95F1F700009111F5CF809197
:10437000E80085FF0CC040E050E066E070E0CE0150
:104380000E94A5238091E8008E778093E800DF915A
:10439000CF910895CF93DF93EC010E948823823060
:1043A00011F0843039F581E08093E9008FEF90912E
:1043B000E800815095FD06C095ED9A95F1F7000053
:1043C0008111F5CF8091E80085FF14C040E050E0F6
:1043D00068E070E0CE010E94A5238091E8008E770E
:1043E0008093E80088E0FE01ACEFB1E001900D920F
:1043F0008A95E1F7DF91CF91089580914302811171
:1044000009C00E943A250E9497258091E2008460AD
:104410008093E2000895109243020895089508954C
:104420000C94301C42E061EC81E00E94B42442E232
:1044300061EC82E00C94B42480914602833009F44C
:1044400060C030F4813071F0823009F499C0089571
:104450008A3009F485C08B3009F46BC0893009F0CB
:10446000A7C020C080914502813A09F0A1C0809187
:10447000E800877F8093E8008091490290914A028A
:10448000892B21F468E08CEF91E003C060E080E0CC
:1044900090E070E00E94F0238091E8008B77809399
:1044A000E800089580914502813209F081C0809131
:1044B000490290914A02029708F07AC08091E80080
:1044C000877F8093E8008091E80082FD05C080919D
:1044D00044028111F8CF6CC02091F3008091F2006A
:1044E00090E0922B029729F48091F1008B7F81302C
:1044F00021F48091F100809304028091E8008B7791
:1045000053C080914502813A09F052C0809149021E
:1045100090914A02892B09F04BC08091E800877F77
:104520008093E8008091E80080FFFCCF80911D011E
:1045300036C0809145028132D9F58091490290912F
:104540004A02892BA9F58091E800877F8093E800D3
:104550000E94E9248091470280931D010C949B14D2
:1045600080914502813221F58091E800877F809318
:10457000E8000E94E9248091480280930502089592
:1045800080914502813AA1F48091E800877F809371
:10459000E8008091E80080FFFCCF809105028093C5
:1045A000F1008091E8008E778093E8000C94E92474
:1045B000089584B7877F84BF0FB6F894A89580913B
:1045C0006000886180936000109260000FBE80E8F8
:1045D00080936100109261000E944A0F0E943A2568
:1045E0000E9497258091E20084608093E200789495
:1045F0000E9426280E94500F83E191E00E94E60E5F
:1046000080914402853069F40E94E71B8091420248
:104610008823B1F30E94191C882391F30E948F23F1
:10462000EFCF0E945A0FECCF0C941623292F33277B
:1046300023303105C9F064F42130310581F0223096
:10464000310509F04CC08BE390E024E734E04BC027
:104650002132310521F12232310589F140C082E158
:1046600090E02FEA34E03FC099278130910571F046
:104670002CF4892BA1F5E0E7F4E00DC08230910520
:1046800041F0039761F5ECE2F4E005C0EAE5F4E0FF
:1046900002C0E2E3F4E0849190E09F0124C0611540
:1046A000710541F061307105D1F489E090E02FE9A6
:1046B00034E019C089E090E026E834E014C06115C8
:1046C000710541F06130710551F485E890E021EC0D
:1046D00034E009C080E490E026E435E004C080E0E6
:1046E00090E020E030E0FA013183208308950895BE
:1046F000CF93C82F0E947723C0930602CF910895CD
:1047000080914402843011F081E0089582E00895A0
:1047100080910602811102C00C948023089580E1EB
:1047200089BD82E189BD09B400FEFDCF8091D8002A
:104730008F7D8093D8008091E00082608093E000BC
:104740008091E00081FDFCCF0895CF92DF92EF923F
:10475000FF920F931F93CF93DF93EC018B016A01BC
:104760000E940825811133C0C114D10439F0F6012B
:1047700080819181081B190BC80FD91FE12CF12CE6
:104780000115110519F18091E80085FD16C0809191
:10479000E8008E778093E800C114D10449F0F60157
:1047A00080819181E80EF91EF182E08285E00FC0E0
:1047B0000E940825882321F30AC089918093F10083
:1047C00001501109FFEFEF1AFF0ADACF80E0DF9105
:1047D000CF911F910F91FF90EF90DF90CF900895B0
:1047E00020914B0230914C022617370748F0611593
:1047F000710539F42091E8002E772093E80001C07C
:10480000B90140E061157105A9F12091440222230C
:1048100009F443C0253009F442C02091E80023FD8B
:1048200040C02091E80022FD32C02091E80020FF26
:10483000E9CF4091F3002091F20030E0342BFC01ED
:10484000CF016115710559F02830310540F481918F
:104850008093F100615071092F5F3F4FF1CF41E02C
:104860002830310509F040E02091E8002E772093B0
:10487000E800C8CF4111C9CF0AC080914402882303
:1048800061F0853061F08091E80083FD0AC080917D
:10489000E80082FFF2CF80E0089582E0089583E08F
:1048A000089581E0089520914B0230914C02261723
:1048B000370748F06115710539F42091E8002E772B
:1048C0002093E80001C0B901FC0120E061157105E9
:1048D00091F180914402882309F440C0853009F4A5
:1048E0003FC08091E80083FD3DC08091E80082FDDB
:1048F0002FC08091E80080FFE9CF2091F3008091E4
:10490000F20090E0922B6115710559F08830910505
:1049100040F424912093F100319661507109019681
:10492000F2CF21E0089709F020E08091E8008E772F
:104930008093E800CBCF2111CCCF0AC080914402F4
:10494000882361F0853061F08091E80083FD0AC022
:104950008091E80082FFF2CF80E0089582E0089520
:1049600083E0089581E00895982F973058F590934B
:10497000E900981739F07091EC002091ED0050910A
:10498000F00003C0242F762F50E021FF19C0309192
:10499000EB003E7F3093EB003091ED003D7F309394
:1049A000ED003091EB0031603093EB007093EC0040
:1049B0002093ED005093F0002091EE0027FF07C0F8
:1049C0009F5FD3CF8F708093E90081E0089580E0EE
:1049D00008958091450287FF11C08091E80082FD13
:1049E00005C0809144028111F8CF11C08091E80088
:1049F0008B770BC080914402882349F08091E800B6
:104A000080FFF8CF8091E8008E778093E8000895CA
:104A10002091E4003091E50095E64091EC00842F70
:104A2000817040FF22C08091E80080FD1CC0809111
:104A30004402882391F0853091F08091EB0085FD50
:104A400010C04091E4005091E5004217530729F34C
:104A50009A01915011F784E0089582E0089583E06F
:104A6000089581E0089580E008954091E80042FFB4
:104A7000DECF08950E94A8250E94B025E0EEF0E068
:104A8000808181608083E8EDF0E080818F77808392
:104A900019BCA7EDB0E08C918E7F8C9380818F7EC6
:104AA00080831092430208950F931F93CF93DF9357
:104AB0000E94A8250E94B025C8EDD0E088818F779C
:104AC000888388818068888388818F7D888319BCEA
:104AD000109244021092400210924202109241023F
:104AE00000EE10E0F80180818B7F808388818160F7
:104AF000888342E060E080E00E94B424E1EEF0E0D0
:104B000080818E7F8083E2EEF0E08081816080830F
:104B1000808188608083F80180818E7F8083888196
:104B200080618883DF91CF911F910F910895E8ED07
:104B3000F0E080818F7E8083E7EDF0E0808181600E
:104B4000808384E082BF81E0809343020C945425EB
:104B5000E8EDF0E080818E7F80831092E20008957E
:104B60001092DA001092E10008951F920F920FB692
:104B70000F9211242F933F934F935F936F937F93E3
:104B80008F939F93AF93BF93EF93FF938091E10037
:104B900082FF0BC08091E20082FF07C08091E1009C
:104BA0008B7F8093E1000E9425288091DA0080FFAE
:104BB0001FC08091D80080FF1BC08091DA008E7FDB
:104BC0008093DA008091D90080FF0DC080E189BD1B
:104BD00082E189BD09B400FEFDCF81E080934402EB
:104BE0000E94FD2105C019BC109244020E940B22B4
:104BF0008091E10080FF19C08091E20080FF15C024
:104C00008091E2008E7F8093E2008091E2008061DB
:104C10008093E2008091D80080628093D80019BC14
:104C200085E0809344020E940F228091E10084FF7E
:104C300030C08091E20084FF2CC080E189BD82E118
:104C400089BD09B400FEFDCF8091D8008F7D80938F
:104C5000D8008091E1008F7E8093E1008091E20096
:104C60008F7E8093E2008091E20081608093E20079
:104C700080914002882311F084E007C08091E30016
:104C800087FD02C081E001C083E0809344020E945E
:104C900010228091E10083FF29C08091E20083FF10
:104CA00025C08091E100877F8093E10082E08093BE
:104CB0004402109240028091E1008E7F8093E100D7
:104CC0008091E2008E7F8093E2008091E20080611B
:104CD0008093E20042E060E080E00E94B424809192
:104CE000F00088608093F0000E940E22FF91EF9107
:104CF000BF91AF919F918F917F916F915F914F91F4
:104D00003F912F910F900FBE0F901F9018951F92FB
:104D10000F920FB60F9211242F933F934F935F93EF
:104D20006F937F938F939F93AF93BF93CF93DF93B3
:104D3000EF93FF93C091E900CF708091EC00D82FE2
:104D4000D17080FDD0E81092E9008091F000877F5B
:104D50008093F00078940E94CB261092E900809115
:104D6000F00088608093F000CD2BCF70C093E900F5
:104D7000FF91EF91DF91CF91BF91AF919F918F9173
:104D80007F916F915F914F913F912F910F900FBE47
:104D90000F901F9018951F93CF93DF93CDB7DEB779
:104DA000AA970FB6F894DEBF0FBECDBFE5E4F2E0E0
:104DB00088E08E0F9091F10091938E13FBCF0E94AB
:104DC0001C228091E80083FF28C1809145029091C8
:104DD0004602492F50E04A30510508F01EC1FA0141
:104DE000EC58FF4F0C946928803821F0823809F084
:104DF00014C108C08091410290914202992389F028
:104E000082600FC0809149028F70873008F005C121
:104E10008093E9008091EB0085FB882780F9109250
:104E2000E9009091E800977F9093E8008093F1006B
:104E30001092F100D0C0282F2D7F09F0EEC08823FA
:104E400019F0823061F0E9C080914702813009F0A9
:104E5000E4C0933009F080E0809342022EC080913C
:104E6000470281112AC0809149028F702FEF280FCD
:104E7000263008F0D2C08093E9002091EB0020FF9B
:104E80001CC0933021F48091EB00806214C090919B
:104E9000EB0090619093EB0021E030E0A90102C0AB
:104EA000440F551F8A95E2F74093EA001092EA00FA
:104EB0008091EB0088608093EB001092E900809174
:104EC000E800877F8093E8000E94E924A6C0811152
:104ED000A4C0109147021F778091E3008078812B56
:104EE0008093E3008091E800877F8093E8000E9430
:104EF000E9248091E80080FFFCCF8091E300806886
:104F00008093E300111102C082E001C083E080932E
:104F1000440283C08058823008F07FC080914702ED
:104F2000909148028C3D53E0950779F583E08A83A0
:104F30008AE289834FB7F894DE01139620E03EE0C1
:104F400051E2E32FF0E050935700E49120FF03C0BB
:104F5000E295EF703F5FEF708E2F90E0EA3010F037
:104F6000C79601C0C0968D939D932F5F243149F75A
:104F70004FBF8091E800877F8093E8006AE270E08D
:104F8000CE0101960E94F02315C0609149027091F4
:104F90004A02AE014F5F5F4F0E941423BC01892B70
:104FA000E1F19091E800977F9093E80089819A81E0
:104FB0000E9453248091E8008B778093E8002DC0F5
:104FC000803859F58091E800877F8093E8008091D0
:104FD00040028093F1008091E8008E7773CF8111B9
:104FE0001CC0909147029230C0F48091E800877F06
:104FF0008093E800909340020E94E924809140024F
:10500000811106C08091E30087FD02C081E001C0EC
:1050100084E0809344020E9412228091E80083FF82
:105020000AC08091E800877F8093E8008091EB00C0
:1050300080628093EB00AA960FB6F894DEBF0FBE95
:10504000CDBFDF91CF911F9108950895CF938091A7
:1050500044028823A1F0C091E900CF709091EC0048
:10506000892F817090FD80E8C82B1092E900809113
:10507000E80083FD0E94CB26CF70C093E900CF915A
:105080000895AA1BBB1B51E107C0AA1FBB1FA6178F
:10509000B70710F0A61BB70B881F991F5A95A9F7E1
:1050A00080959095BC01CD01089597FB072E16F4CD
:1050B000009407D077FD09D00E94412807FC05D055
:1050C0003EF4909581959F4F0895709561957F4F1F
:1050D0000895EE0FFF1F0590F491E02D0994F999C2
:1050E000FECF92BD81BDF89A992780B50895A6E1BB
:1050F000B0E044E050E00C94A928A8E1B0E042E020
:1051000050E00C94A928262FF999FECF92BD81BDBD
:10511000F89A019700B4021639F01FBA20BD0FB6F5
:10512000F894FA9AF99A0FBE08950396272F0E94D1
:1051300084280E948328252F0E948428242F0C94E1
:1051400084280196272F0E9484280C948328DC0150
:10515000CB01FC01F999FECF06C0F2BDE1BDF89A82
:10516000319600B40D9241505040B8F70895F8942C
:02517000FFCF6F
:105172000151010052010552010E0EE301280814EB
:105182000A321E2B21CA219F2169212E2101F5F607
:10519200F7313332369497C63435000000000000F0
:0C51A200010102030405060708090000D3
:00000001FF
